{
  "address": "0x89A7FBC572c734b48A1fbf79c7F4ba7DB73A6Fea",
  "abi": [
    {
      "inputs": [
        {
          "internalType": "address",
          "name": "exampleExternalContractAddress",
          "type": "address"
        }
      ],
      "stateMutability": "nonpayable",
      "type": "constructor"
    },
    {
      "anonymous": false,
      "inputs": [
        {
          "indexed": true,
          "internalType": "address",
          "name": "staker",
          "type": "address"
        },
        {
          "indexed": false,
          "internalType": "uint256",
          "name": "amount",
          "type": "uint256"
        }
      ],
      "name": "Stake",
      "type": "event"
    },
    {
      "inputs": [
        {
          "internalType": "address",
          "name": "",
          "type": "address"
        }
      ],
      "name": "balances",
      "outputs": [
        {
          "internalType": "uint256",
          "name": "",
          "type": "uint256"
        }
      ],
      "stateMutability": "view",
      "type": "function"
    },
    {
      "inputs": [],
      "name": "deadline",
      "outputs": [
        {
          "internalType": "uint256",
          "name": "",
          "type": "uint256"
        }
      ],
      "stateMutability": "view",
      "type": "function"
    },
    {
      "inputs": [],
      "name": "exampleExternalContract",
      "outputs": [
        {
          "internalType": "contract ExampleExternalContract",
          "name": "",
          "type": "address"
        }
      ],
      "stateMutability": "view",
      "type": "function"
    },
    {
      "inputs": [],
      "name": "execute",
      "outputs": [],
      "stateMutability": "nonpayable",
      "type": "function"
    },
    {
      "inputs": [],
      "name": "openForWithdraw",
      "outputs": [
        {
          "internalType": "bool",
          "name": "",
          "type": "bool"
        }
      ],
      "stateMutability": "view",
      "type": "function"
    },
    {
      "inputs": [],
      "name": "stake",
      "outputs": [],
      "stateMutability": "payable",
      "type": "function"
    },
    {
      "inputs": [],
      "name": "threshold",
      "outputs": [
        {
          "internalType": "uint256",
          "name": "",
          "type": "uint256"
        }
      ],
      "stateMutability": "view",
      "type": "function"
    },
    {
      "inputs": [],
      "name": "timeLeft",
      "outputs": [
        {
          "internalType": "uint256",
          "name": "",
          "type": "uint256"
        }
      ],
      "stateMutability": "view",
      "type": "function"
    },
    {
      "inputs": [],
      "name": "withdraw",
      "outputs": [],
      "stateMutability": "nonpayable",
      "type": "function"
    },
    {
      "stateMutability": "payable",
      "type": "receive"
    }
  ],
  "transactionHash": "0x2549f1127a3e8b7a25fc52cc4c80ce60367ecee77f88d4fe0adadf6a5c369a30",
  "args": [
    "0x4D4A0B5b36F781A6a451f500C9ba95a0664abf76"
  ],
  "numDeployments": 1,
  "solcInputHash": "25f0bef3cb6180414ca0a2db10ae1227",
  "bytecode": "0x6080604052610011426203f48061006e565b6002556003805460ff1916905534801561002a57600080fd5b506040516107b33803806107b383398101604081905261004991610095565b600080546001600160a01b0319166001600160a01b03929092169190911790556100c5565b8082018082111561008f57634e487b7160e01b600052601160045260246000fd5b92915050565b6000602082840312156100a757600080fd5b81516001600160a01b03811681146100be57600080fd5b9392505050565b6106df806100d46000396000f3fe60806040526004361061008a5760003560e01c80633ccfd60b116100595780633ccfd60b1461011157806342cde4e81461012657806361461954146101425780639876a643146101575780639f75f2271461018157600080fd5b80631300a6d11461009e57806327e235e3146100c657806329dcb0cf146100f35780633a4b66f11461010957600080fd5b36610099576100976101b9565b005b600080fd5b3480156100aa57600080fd5b506100b361031e565b6040519081526020015b60405180910390f35b3480156100d257600080fd5b506100b36100e1366004610615565b60016020526000908152604090205481565b3480156100ff57600080fd5b506100b360025481565b6100976101b9565b34801561011d57600080fd5b50610097610342565b34801561013257600080fd5b506100b3670de0b6b3a764000081565b34801561014e57600080fd5b5061009761047b565b34801561016357600080fd5b506003546101719060ff1681565b60405190151581526020016100bd565b34801561018d57600080fd5b506000546101a1906001600160a01b031681565b6040516001600160a01b0390911681526020016100bd565b60008054906101000a90046001600160a01b03166001600160a01b0316639d9a7fe96040518163ffffffff1660e01b8152600401602060405180830381865afa15801561020a573d6000803e3d6000fd5b505050506040513d601f19601f8201168201806040525081019061022e9190610645565b1561027c5760405162461bcd60e51b815260206004820152601960248201527814dd185ada5b99c8185b1c9958591e4818dbdb5c1b195d1959603a1b60448201526064015b60405180910390fd5b60025442106102c35760405162461bcd60e51b8152602060048201526013602482015272111958591b1a5b99481a185cc81c185cdcd959606a1b6044820152606401610273565b33600090815260016020526040812080543492906102e290849061067d565b909155505060405134815233907febedb8b3c678666e7f36970bc8f57abf6d8fa2e828c0da91ea5b75bf68ed101a9060200160405180910390a2565b6000600254421061032f5750600090565b4260025461033d9190610696565b905090565b60035460ff1661038b5760405162461bcd60e51b81526020600482015260146024820152732bb4ba34323930bbb0b639903737ba1037b832b760611b6044820152606401610273565b33600090815260016020526040902054806103de5760405162461bcd60e51b81526020600482015260136024820152724e6f7468696e6720746f20776974686472617760681b6044820152606401610273565b336000818152600160205260408082208290555190919083908381818185875af1925050503d806000811461042f576040519150601f19603f3d011682016040523d82523d6000602084013e610434565b606091505b50509050806104775760405162461bcd60e51b815260206004820152600f60248201526e15da5d1a191c985dc819985a5b1959608a1b6044820152606401610273565b5050565b60008054906101000a90046001600160a01b03166001600160a01b0316639d9a7fe96040518163ffffffff1660e01b8152600401602060405180830381865afa1580156104cc573d6000803e3d6000fd5b505050506040513d601f19601f820116820180604052508101906104f09190610645565b156105395760405162461bcd60e51b815260206004820152601960248201527814dd185ada5b99c8185b1c9958591e4818dbdb5c1b195d1959603a1b6044820152606401610273565b60025442101561058b5760405162461bcd60e51b815260206004820152601860248201527f446561646c696e65206e6f7420726561636865642079657400000000000000006044820152606401610273565b47670de0b6b3a764000081106106055760008054906101000a90046001600160a01b03166001600160a01b031663522e1177826040518263ffffffff1660e01b81526004016000604051808303818588803b1580156105e957600080fd5b505af11580156105fd573d6000803e3d6000fd5b505050505050565b6003805460ff1916600117905550565b60006020828403121561062757600080fd5b81356001600160a01b038116811461063e57600080fd5b9392505050565b60006020828403121561065757600080fd5b8151801515811461063e57600080fd5b634e487b7160e01b600052601160045260246000fd5b8082018082111561069057610690610667565b92915050565b818103818111156106905761069061066756fea2646970667358221220a4a7666f77a3fff73d1a3d3480845dd6106d7d4bae3be731ebf1a633d88407b664736f6c63430008140033",
  "devdoc": {
    "kind": "dev",
    "methods": {},
    "version": 1
  },
  "userdoc": {
    "kind": "user",
    "methods": {},
    "version": 1
  },
  "storageLayout": {
    "storage": [
      {
        "astId": 19,
        "contract": "contracts/Staker.sol:Staker",
        "label": "exampleExternalContract",
        "offset": 0,
        "slot": "0",
        "type": "t_contract(ExampleExternalContract)12"
      },
      {
        "astId": 23,
        "contract": "contracts/Staker.sol:Staker",
        "label": "balances",
        "offset": 0,
        "slot": "1",
        "type": "t_mapping(t_address,t_uint256)"
      },
      {
        "astId": 32,
        "contract": "contracts/Staker.sol:Staker",
        "label": "deadline",
        "offset": 0,
        "slot": "2",
        "type": "t_uint256"
      },
      {
        "astId": 35,
        "contract": "contracts/Staker.sol:Staker",
        "label": "openForWithdraw",
        "offset": 0,
        "slot": "3",
        "type": "t_bool"
      }
    ],
    "types": {
      "t_address": {
        "encoding": "inplace",
        "label": "address",
        "numberOfBytes": "20"
      },
      "t_bool": {
        "encoding": "inplace",
        "label": "bool",
        "numberOfBytes": "1"
      },
      "t_contract(ExampleExternalContract)12": {
        "encoding": "inplace",
        "label": "contract ExampleExternalContract",
        "numberOfBytes": "20"
      },
      "t_mapping(t_address,t_uint256)": {
        "encoding": "mapping",
        "key": "t_address",
        "label": "mapping(address => uint256)",
        "numberOfBytes": "32",
        "value": "t_uint256"
      },
      "t_uint256": {
        "encoding": "inplace",
        "label": "uint256",
        "numberOfBytes": "32"
      }
    }
  }
}